{
  "_format": "hh-sol-artifact-1",
  "contractName": "VoteContract",
  "sourceName": "contracts/VoteContract.sol",
  "abi": [
    {
      "inputs": [
        {
          "internalType": "string[]",
          "name": "_candidates",
          "type": "string[]"
        }
      ],
      "stateMutability": "nonpayable",
      "type": "constructor"
    },
    {
      "anonymous": false,
      "inputs": [
        {
          "indexed": true,
          "internalType": "address",
          "name": "previousOwner",
          "type": "address"
        },
        {
          "indexed": true,
          "internalType": "address",
          "name": "newOwner",
          "type": "address"
        }
      ],
      "name": "OwnershipTransferred",
      "type": "event"
    },
    {
      "inputs": [
        {
          "internalType": "address",
          "name": "_voterAddress",
          "type": "address"
        }
      ],
      "name": "checkVoterEnrollment",
      "outputs": [
        {
          "internalType": "bool",
          "name": "",
          "type": "bool"
        }
      ],
      "stateMutability": "view",
      "type": "function"
    },
    {
      "inputs": [
        {
          "internalType": "address",
          "name": "_voterAddress",
          "type": "address"
        }
      ],
      "name": "checkVotingStatus",
      "outputs": [
        {
          "internalType": "bool",
          "name": "",
          "type": "bool"
        }
      ],
      "stateMutability": "view",
      "type": "function"
    },
    {
      "inputs": [
        {
          "internalType": "address[]",
          "name": "_voterAddresses",
          "type": "address[]"
        }
      ],
      "name": "enrollVoters",
      "outputs": [],
      "stateMutability": "nonpayable",
      "type": "function"
    },
    {
      "inputs": [],
      "name": "owner",
      "outputs": [
        {
          "internalType": "address",
          "name": "",
          "type": "address"
        }
      ],
      "stateMutability": "view",
      "type": "function"
    },
    {
      "inputs": [],
      "name": "renounceOwnership",
      "outputs": [],
      "stateMutability": "nonpayable",
      "type": "function"
    },
    {
      "inputs": [
        {
          "internalType": "string[]",
          "name": "_newCandidateList",
          "type": "string[]"
        }
      ],
      "name": "setCandidates",
      "outputs": [],
      "stateMutability": "nonpayable",
      "type": "function"
    },
    {
      "inputs": [
        {
          "internalType": "address",
          "name": "newOwner",
          "type": "address"
        }
      ],
      "name": "transferOwnership",
      "outputs": [],
      "stateMutability": "nonpayable",
      "type": "function"
    },
    {
      "inputs": [
        {
          "internalType": "string",
          "name": "_candidate",
          "type": "string"
        }
      ],
      "name": "viewCandidateVotes",
      "outputs": [
        {
          "internalType": "uint256",
          "name": "",
          "type": "uint256"
        }
      ],
      "stateMutability": "view",
      "type": "function"
    },
    {
      "inputs": [],
      "name": "viewCandidates",
      "outputs": [
        {
          "internalType": "string[]",
          "name": "",
          "type": "string[]"
        }
      ],
      "stateMutability": "view",
      "type": "function"
    },
    {
      "inputs": [
        {
          "internalType": "string",
          "name": "candidate",
          "type": "string"
        }
      ],
      "name": "vote",
      "outputs": [],
      "stateMutability": "nonpayable",
      "type": "function"
    }
  ],
  "bytecode": "0x60806040523480156200001157600080fd5b5060405162001e1c38038062001e1c8339818101604052810190620000379190620003f7565b620000576200004b6200007760201b60201c565b6200007f60201b60201c565b80600390805190602001906200006f92919062000143565b5050620005db565b600033905090565b60008060009054906101000a900473ffffffffffffffffffffffffffffffffffffffff169050816000806101000a81548173ffffffffffffffffffffffffffffffffffffffff021916908373ffffffffffffffffffffffffffffffffffffffff1602179055508173ffffffffffffffffffffffffffffffffffffffff168173ffffffffffffffffffffffffffffffffffffffff167f8be0079c531659141344cd1fd0a4f28419497f9722a3daafe3b4186f6b6457e060405160405180910390a35050565b82805482825590600052602060002090810192821562000197579160200282015b828111156200019657825182908051906020019062000185929190620001aa565b509160200191906001019062000164565b5b509050620001a691906200023b565b5090565b828054620001b89062000500565b90600052602060002090601f016020900481019282620001dc576000855562000228565b82601f10620001f757805160ff191683800117855562000228565b8280016001018555821562000228579182015b82811115620002275782518255916020019190600101906200020a565b5b50905062000237919062000263565b5090565b5b808211156200025f576000818162000255919062000282565b506001016200023c565b5090565b5b808211156200027e57600081600090555060010162000264565b5090565b508054620002909062000500565b6000825580601f10620002a45750620002c5565b601f016020900490600052602060002090810190620002c4919062000263565b5b50565b6000620002df620002d98462000465565b6200043c565b90508083825260208201905082856020860282011115620002ff57600080fd5b60005b858110156200034e57815167ffffffffffffffff8111156200032357600080fd5b808601620003328982620003ca565b8552602085019450602084019350505060018101905062000302565b5050509392505050565b60006200036f620003698462000494565b6200043c565b9050828152602081018484840111156200038857600080fd5b62000395848285620004ca565b509392505050565b600082601f830112620003af57600080fd5b8151620003c1848260208601620002c8565b91505092915050565b600082601f830112620003dc57600080fd5b8151620003ee84826020860162000358565b91505092915050565b6000602082840312156200040a57600080fd5b600082015167ffffffffffffffff8111156200042557600080fd5b62000433848285016200039d565b91505092915050565b6000620004486200045b565b905062000456828262000536565b919050565b6000604051905090565b600067ffffffffffffffff8211156200048357620004826200059b565b5b602082029050602081019050919050565b600067ffffffffffffffff821115620004b257620004b16200059b565b5b620004bd82620005ca565b9050602081019050919050565b60005b83811015620004ea578082015181840152602081019050620004cd565b83811115620004fa576000848401525b50505050565b600060028204905060018216806200051957607f821691505b6020821081141562000530576200052f6200056c565b5b50919050565b6200054182620005ca565b810181811067ffffffffffffffff821117156200056357620005626200059b565b5b80604052505050565b7f4e487b7100000000000000000000000000000000000000000000000000000000600052602260045260246000fd5b7f4e487b7100000000000000000000000000000000000000000000000000000000600052604160045260246000fd5b6000601f19601f8301169050919050565b61183180620005eb6000396000f3fe608060405234801561001057600080fd5b506004361061009e5760003560e01c8063bf4c179211610066578063bf4c179214610147578063d30f11dd14610177578063e556774814610195578063f2fde38b146101b1578063fc36e15b146101cd5761009e565b806314e745d9146100a35780632a7c851c146100bf578063709eddb0146100ef578063715018a61461011f5780638da5cb5b14610129575b600080fd5b6100bd60048036038101906100b89190611083565b6101e9565b005b6100d960048036038101906100d491906110c4565b610399565b6040516100e691906113e3565b60405180910390f35b61010960048036038101906101049190611019565b6103c1565b6040516101169190611328565b60405180910390f35b610127610417565b005b61013161049f565b60405161013e91906112eb565b60405180910390f35b610161600480360381019061015c9190611019565b6104c8565b60405161016e9190611328565b60405180910390f35b61017f61051e565b60405161018c9190611306565b60405180910390f35b6101af60048036038101906101aa9190611042565b6105f7565b005b6101cb60048036038101906101c69190611019565b6107c5565b005b6101e760048036038101906101e291906110c4565b6108bd565b005b6101f1610b6f565b73ffffffffffffffffffffffffffffffffffffffff1661020f61049f565b73ffffffffffffffffffffffffffffffffffffffff1614610265576040517f08c379a000000000000000000000000000000000000000000000000000000000815260040161025c906113a3565b60405180910390fd5b806003908051906020019061027b929190610cef565b5060005b600380549050811015610395576000600382815481106102c8577f4e487b7100000000000000000000000000000000000000000000000000000000600052603260045260246000fd5b9060005260206000200180546102dd906115a7565b80601f0160208091040260200160405190810160405280929190818152602001828054610309906115a7565b80156103565780601f1061032b57610100808354040283529160200191610356565b820191906000526020600020905b81548152906001019060200180831161033957829003601f168201915b50505050509050600060048260405161036f91906112d4565b90815260200160405180910390208190555050808061038d9061160a565b91505061027f565b5050565b60006004826040516103ab91906112d4565b9081526020016040518091039020549050919050565b6000600260008373ffffffffffffffffffffffffffffffffffffffff1673ffffffffffffffffffffffffffffffffffffffff16815260200190815260200160002060009054906101000a900460ff169050919050565b61041f610b6f565b73ffffffffffffffffffffffffffffffffffffffff1661043d61049f565b73ffffffffffffffffffffffffffffffffffffffff1614610493576040517f08c379a000000000000000000000000000000000000000000000000000000000815260040161048a906113a3565b60405180910390fd5b61049d6000610b77565b565b60008060009054906101000a900473ffffffffffffffffffffffffffffffffffffffff16905090565b6000600160008373ffffffffffffffffffffffffffffffffffffffff1673ffffffffffffffffffffffffffffffffffffffff16815260200190815260200160002060009054906101000a900460ff169050919050565b60606003805480602002602001604051908101604052809291908181526020016000905b828210156105ee578382906000526020600020018054610561906115a7565b80601f016020809104026020016040519081016040528092919081815260200182805461058d906115a7565b80156105da5780601f106105af576101008083540402835291602001916105da565b820191906000526020600020905b8154815290600101906020018083116105bd57829003601f168201915b505050505081526020019060010190610542565b50505050905090565b6105ff610b6f565b73ffffffffffffffffffffffffffffffffffffffff1661061d61049f565b73ffffffffffffffffffffffffffffffffffffffff1614610673576040517f08c379a000000000000000000000000000000000000000000000000000000000815260040161066a906113a3565b60405180910390fd5b60005b81518110156107c15760018060008484815181106106bd577f4e487b7100000000000000000000000000000000000000000000000000000000600052603260045260246000fd5b602002602001015173ffffffffffffffffffffffffffffffffffffffff1673ffffffffffffffffffffffffffffffffffffffff16815260200190815260200160002060006101000a81548160ff021916908315150217905550600160026000848481518110610755577f4e487b7100000000000000000000000000000000000000000000000000000000600052603260045260246000fd5b602002602001015173ffffffffffffffffffffffffffffffffffffffff1673ffffffffffffffffffffffffffffffffffffffff16815260200190815260200160002060006101000a81548160ff02191690831515021790555080806107b99061160a565b915050610676565b5050565b6107cd610b6f565b73ffffffffffffffffffffffffffffffffffffffff166107eb61049f565b73ffffffffffffffffffffffffffffffffffffffff1614610841576040517f08c379a0000000000000000000000000000000000000000000000000000000008152600401610838906113a3565b60405180910390fd5b600073ffffffffffffffffffffffffffffffffffffffff168173ffffffffffffffffffffffffffffffffffffffff1614156108b1576040517f08c379a00000000000000000000000000000000000000000000000000000000081526004016108a890611343565b60405180910390fd5b6108ba81610b77565b50565b806000805b6003805490508110156109c6576109a5836003838154811061090d577f4e487b7100000000000000000000000000000000000000000000000000000000600052603260045260246000fd5b906000526020600020018054610922906115a7565b80601f016020809104026020016040519081016040528092919081815260200182805461094e906115a7565b801561099b5780601f106109705761010080835404028352916020019161099b565b820191906000526020600020905b81548152906001019060200180831161097e57829003601f168201915b5050505050610c3b565b156109b357600191506109c6565b80806109be9061160a565b9150506108c2565b5080610a07576040517f08c379a00000000000000000000000000000000000000000000000000000000081526004016109fe90611383565b60405180910390fd5b60011515600160003373ffffffffffffffffffffffffffffffffffffffff1673ffffffffffffffffffffffffffffffffffffffff16815260200190815260200160002060009054906101000a900460ff16151514610a9a576040517f08c379a0000000000000000000000000000000000000000000000000000000008152600401610a9190611363565b60405180910390fd5b60011515600260003373ffffffffffffffffffffffffffffffffffffffff1673ffffffffffffffffffffffffffffffffffffffff16815260200190815260200160002060009054906101000a900460ff16151514610b2d576040517f08c379a0000000000000000000000000000000000000000000000000000000008152600401610b24906113c3565b60405180910390fd5b600483604051610b3d91906112d4565b90815260200160405180910390206000815480929190610b5c9061160a565b9190505550610b6a33610c94565b505050565b600033905090565b60008060009054906101000a900473ffffffffffffffffffffffffffffffffffffffff169050816000806101000a81548173ffffffffffffffffffffffffffffffffffffffff021916908373ffffffffffffffffffffffffffffffffffffffff1602179055508173ffffffffffffffffffffffffffffffffffffffff168173ffffffffffffffffffffffffffffffffffffffff167f8be0079c531659141344cd1fd0a4f28419497f9722a3daafe3b4186f6b6457e060405160405180910390a35050565b600081604051602001610c4e91906112d4565b6040516020818303038152906040528051906020012083604051602001610c7591906112d4565b6040516020818303038152906040528051906020012014905092915050565b6000600260008373ffffffffffffffffffffffffffffffffffffffff1673ffffffffffffffffffffffffffffffffffffffff16815260200190815260200160002060006101000a81548160ff02191690831515021790555050565b828054828255906000526020600020908101928215610d3e579160200282015b82811115610d3d578251829080519060200190610d2d929190610d4f565b5091602001919060010190610d0f565b5b509050610d4b9190610dd5565b5090565b828054610d5b906115a7565b90600052602060002090601f016020900481019282610d7d5760008555610dc4565b82601f10610d9657805160ff1916838001178555610dc4565b82800160010185558215610dc4579182015b82811115610dc3578251825591602001919060010190610da8565b5b509050610dd19190610df9565b5090565b5b80821115610df55760008181610dec9190610e16565b50600101610dd6565b5090565b5b80821115610e12576000816000905550600101610dfa565b5090565b508054610e22906115a7565b6000825580601f10610e345750610e53565b601f016020900490600052602060002090810190610e529190610df9565b5b50565b6000610e69610e6484611423565b6113fe565b90508083825260208201905082856020860282011115610e8857600080fd5b60005b85811015610eb85781610e9e8882610f86565b845260208401935060208301925050600181019050610e8b565b5050509392505050565b6000610ed5610ed08461144f565b6113fe565b90508083825260208201905082856020860282011115610ef457600080fd5b60005b85811015610f3e57813567ffffffffffffffff811115610f1657600080fd5b808601610f238982610fef565b85526020850194506020840193505050600181019050610ef7565b5050509392505050565b6000610f5b610f568461147b565b6113fe565b905082815260208101848484011115610f7357600080fd5b610f7e848285611565565b509392505050565b600081359050610f95816117e4565b92915050565b600082601f830112610fac57600080fd5b8135610fbc848260208601610e56565b91505092915050565b600082601f830112610fd657600080fd5b8135610fe6848260208601610ec2565b91505092915050565b600082601f83011261100057600080fd5b8135611010848260208601610f48565b91505092915050565b60006020828403121561102b57600080fd5b600061103984828501610f86565b91505092915050565b60006020828403121561105457600080fd5b600082013567ffffffffffffffff81111561106e57600080fd5b61107a84828501610f9b565b91505092915050565b60006020828403121561109557600080fd5b600082013567ffffffffffffffff8111156110af57600080fd5b6110bb84828501610fc5565b91505092915050565b6000602082840312156110d657600080fd5b600082013567ffffffffffffffff8111156110f057600080fd5b6110fc84828501610fef565b91505092915050565b600061111183836111ac565b905092915050565b6111228161151d565b82525050565b6000611133826114bc565b61113d81856114df565b93508360208202850161114f856114ac565b8060005b8581101561118b578484038952815161116c8582611105565b9450611177836114d2565b925060208a01995050600181019050611153565b50829750879550505050505092915050565b6111a68161152f565b82525050565b60006111b7826114c7565b6111c181856114f0565b93506111d1818560208601611574565b6111da816116e0565b840191505092915050565b60006111f0826114c7565b6111fa8185611512565b935061120a818560208601611574565b80840191505092915050565b6000611223602683611501565b915061122e826116f1565b604082019050919050565b6000611246601583611501565b915061125182611740565b602082019050919050565b6000611269601883611501565b915061127482611769565b602082019050919050565b600061128c602083611501565b915061129782611792565b602082019050919050565b60006112af601783611501565b91506112ba826117bb565b602082019050919050565b6112ce8161155b565b82525050565b60006112e082846111e5565b915081905092915050565b60006020820190506113006000830184611119565b92915050565b600060208201905081810360008301526113208184611128565b905092915050565b600060208201905061133d600083018461119d565b92915050565b6000602082019050818103600083015261135c81611216565b9050919050565b6000602082019050818103600083015261137c81611239565b9050919050565b6000602082019050818103600083015261139c8161125c565b9050919050565b600060208201905081810360008301526113bc8161127f565b9050919050565b600060208201905081810360008301526113dc816112a2565b9050919050565b60006020820190506113f860008301846112c5565b92915050565b6000611408611419565b905061141482826115d9565b919050565b6000604051905090565b600067ffffffffffffffff82111561143e5761143d6116b1565b5b602082029050602081019050919050565b600067ffffffffffffffff82111561146a576114696116b1565b5b602082029050602081019050919050565b600067ffffffffffffffff821115611496576114956116b1565b5b61149f826116e0565b9050602081019050919050565b6000819050602082019050919050565b600081519050919050565b600081519050919050565b6000602082019050919050565b600082825260208201905092915050565b600082825260208201905092915050565b600082825260208201905092915050565b600081905092915050565b60006115288261153b565b9050919050565b60008115159050919050565b600073ffffffffffffffffffffffffffffffffffffffff82169050919050565b6000819050919050565b82818337600083830152505050565b60005b83811015611592578082015181840152602081019050611577565b838111156115a1576000848401525b50505050565b600060028204905060018216806115bf57607f821691505b602082108114156115d3576115d2611682565b5b50919050565b6115e2826116e0565b810181811067ffffffffffffffff82111715611601576116006116b1565b5b80604052505050565b60006116158261155b565b91507fffffffffffffffffffffffffffffffffffffffffffffffffffffffffffffffff82141561164857611647611653565b5b600182019050919050565b7f4e487b7100000000000000000000000000000000000000000000000000000000600052601160045260246000fd5b7f4e487b7100000000000000000000000000000000000000000000000000000000600052602260045260246000fd5b7f4e487b7100000000000000000000000000000000000000000000000000000000600052604160045260246000fd5b6000601f19601f8301169050919050565b7f4f776e61626c653a206e6577206f776e657220697320746865207a65726f206160008201527f6464726573730000000000000000000000000000000000000000000000000000602082015250565b7f566f746572206973206e6f7420656e726f6c6c65640000000000000000000000600082015250565b7f43616e64696461746520646f6573206e6f742065786973740000000000000000600082015250565b7f4f776e61626c653a2063616c6c6572206973206e6f7420746865206f776e6572600082015250565b7f566f7465722068617320616c726561647920766f746564000000000000000000600082015250565b6117ed8161151d565b81146117f857600080fd5b5056fea2646970667358221220ff17622b3dec97b772c183ffc6bbb61a14bf0ebc4c66e81d25fd779fce2abde764736f6c63430008040033",
  "linkReferences": {},
  "deployedLinkReferences": {}
}